{
  "_format": "hh-sol-artifact-1",
  "contractName": "Bet",
  "sourceName": "contracts/Bet.sol",
  "abi": [
    {
      "inputs": [
        {
          "internalType": "address",
          "name": "vrfCoordinatorV2",
          "type": "address"
        },
        {
          "internalType": "uint64",
          "name": "subscriptionId",
          "type": "uint64"
        },
        {
          "internalType": "bytes32",
          "name": "gasLane",
          "type": "bytes32"
        },
        {
          "internalType": "uint32",
          "name": "callbackGasLimit",
          "type": "uint32"
        }
      ],
      "stateMutability": "nonpayable",
      "type": "constructor"
    },
    {
      "inputs": [],
      "name": "Bet__TransferFailed",
      "type": "error"
    },
    {
      "inputs": [],
      "name": "Bet__minimumAmountTooSmall",
      "type": "error"
    },
    {
      "inputs": [
        {
          "internalType": "uint256",
          "name": "currentBalance",
          "type": "uint256"
        },
        {
          "internalType": "uint256",
          "name": "numOfPlayers",
          "type": "uint256"
        },
        {
          "internalType": "bool",
          "name": "isGameStarted",
          "type": "bool"
        }
      ],
      "name": "Bet__upkeepNotNeeded",
      "type": "error"
    },
    {
      "inputs": [
        {
          "internalType": "address",
          "name": "have",
          "type": "address"
        },
        {
          "internalType": "address",
          "name": "want",
          "type": "address"
        }
      ],
      "name": "OnlyCoordinatorCanFulfill",
      "type": "error"
    },
    {
      "anonymous": false,
      "inputs": [
        {
          "indexed": true,
          "internalType": "address",
          "name": "player",
          "type": "address"
        }
      ],
      "name": "BetPlaced",
      "type": "event"
    },
    {
      "anonymous": false,
      "inputs": [
        {
          "indexed": false,
          "internalType": "uint256",
          "name": "gameId",
          "type": "uint256"
        },
        {
          "indexed": false,
          "internalType": "address",
          "name": "winner",
          "type": "address"
        },
        {
          "indexed": false,
          "internalType": "bytes32",
          "name": "requestId",
          "type": "bytes32"
        }
      ],
      "name": "GameEnded",
      "type": "event"
    },
    {
      "anonymous": false,
      "inputs": [
        {
          "indexed": false,
          "internalType": "uint256",
          "name": "gameId",
          "type": "uint256"
        },
        {
          "indexed": false,
          "internalType": "uint256",
          "name": "i_minimumAmount",
          "type": "uint256"
        }
      ],
      "name": "GameStarted",
      "type": "event"
    },
    {
      "anonymous": false,
      "inputs": [
        {
          "indexed": true,
          "internalType": "address",
          "name": "previousOwner",
          "type": "address"
        },
        {
          "indexed": true,
          "internalType": "address",
          "name": "newOwner",
          "type": "address"
        }
      ],
      "name": "OwnershipTransferred",
      "type": "event"
    },
    {
      "anonymous": false,
      "inputs": [
        {
          "indexed": false,
          "internalType": "uint256",
          "name": "requestId",
          "type": "uint256"
        }
      ],
      "name": "RequestedBetWinner",
      "type": "event"
    },
    {
      "anonymous": false,
      "inputs": [
        {
          "indexed": true,
          "internalType": "address",
          "name": "theWinner",
          "type": "address"
        }
      ],
      "name": "WinnerPicked",
      "type": "event"
    },
    {
      "stateMutability": "payable",
      "type": "fallback"
    },
    {
      "inputs": [
        {
          "internalType": "bytes",
          "name": "",
          "type": "bytes"
        }
      ],
      "name": "checkUpkeep",
      "outputs": [
        {
          "internalType": "bool",
          "name": "upkeepNeeded",
          "type": "bool"
        },
        {
          "internalType": "bytes",
          "name": "",
          "type": "bytes"
        }
      ],
      "stateMutability": "view",
      "type": "function"
    },
    {
      "inputs": [],
      "name": "gameId",
      "outputs": [
        {
          "internalType": "uint256",
          "name": "",
          "type": "uint256"
        }
      ],
      "stateMutability": "view",
      "type": "function"
    },
    {
      "inputs": [],
      "name": "gameStarted",
      "outputs": [
        {
          "internalType": "bool",
          "name": "",
          "type": "bool"
        }
      ],
      "stateMutability": "view",
      "type": "function"
    },
    {
      "inputs": [],
      "name": "getMinimumAmount",
      "outputs": [
        {
          "internalType": "uint256",
          "name": "",
          "type": "uint256"
        }
      ],
      "stateMutability": "view",
      "type": "function"
    },
    {
      "inputs": [],
      "name": "getNumberOfPlayers",
      "outputs": [
        {
          "internalType": "uint256",
          "name": "",
          "type": "uint256"
        }
      ],
      "stateMutability": "view",
      "type": "function"
    },
    {
      "inputs": [
        {
          "internalType": "uint256",
          "name": "index",
          "type": "uint256"
        }
      ],
      "name": "getPlayer",
      "outputs": [
        {
          "internalType": "address",
          "name": "",
          "type": "address"
        }
      ],
      "stateMutability": "view",
      "type": "function"
    },
    {
      "inputs": [],
      "name": "getRecentWinner",
      "outputs": [
        {
          "internalType": "address",
          "name": "",
          "type": "address"
        }
      ],
      "stateMutability": "view",
      "type": "function"
    },
    {
      "inputs": [],
      "name": "getTimeInterval",
      "outputs": [
        {
          "internalType": "uint256",
          "name": "",
          "type": "uint256"
        }
      ],
      "stateMutability": "view",
      "type": "function"
    },
    {
      "inputs": [],
      "name": "ifGameStarted",
      "outputs": [
        {
          "internalType": "bool",
          "name": "",
          "type": "bool"
        }
      ],
      "stateMutability": "view",
      "type": "function"
    },
    {
      "inputs": [],
      "name": "owner",
      "outputs": [
        {
          "internalType": "address",
          "name": "",
          "type": "address"
        }
      ],
      "stateMutability": "view",
      "type": "function"
    },
    {
      "inputs": [
        {
          "internalType": "bytes",
          "name": "",
          "type": "bytes"
        }
      ],
      "name": "performUpkeep",
      "outputs": [],
      "stateMutability": "nonpayable",
      "type": "function"
    },
    {
      "inputs": [],
      "name": "placeBet",
      "outputs": [],
      "stateMutability": "payable",
      "type": "function"
    },
    {
      "inputs": [
        {
          "internalType": "uint256",
          "name": "requestId",
          "type": "uint256"
        },
        {
          "internalType": "uint256[]",
          "name": "randomWords",
          "type": "uint256[]"
        }
      ],
      "name": "rawFulfillRandomWords",
      "outputs": [],
      "stateMutability": "nonpayable",
      "type": "function"
    },
    {
      "inputs": [],
      "name": "renounceOwnership",
      "outputs": [],
      "stateMutability": "nonpayable",
      "type": "function"
    },
    {
      "inputs": [
        {
          "internalType": "uint256",
          "name": "_minimumAmount",
          "type": "uint256"
        },
        {
          "internalType": "uint256",
          "name": "_timeInterval",
          "type": "uint256"
        }
      ],
      "name": "startGame",
      "outputs": [],
      "stateMutability": "nonpayable",
      "type": "function"
    },
    {
      "inputs": [
        {
          "internalType": "address",
          "name": "newOwner",
          "type": "address"
        }
      ],
      "name": "transferOwnership",
      "outputs": [],
      "stateMutability": "nonpayable",
      "type": "function"
    },
    {
      "stateMutability": "payable",
      "type": "receive"
    }
  ],
  "bytecode": "0x6101206040523480156200001257600080fd5b5060405162001d5238038062001d52833981810160405281019062000038919062000317565b838073ffffffffffffffffffffffffffffffffffffffff1660808173ffffffffffffffffffffffffffffffffffffffff1681525050506200008e620000826200012060201b60201c565b6200012860201b60201c565b8373ffffffffffffffffffffffffffffffffffffffff1660a08173ffffffffffffffffffffffffffffffffffffffff16815250508160e081815250508267ffffffffffffffff1660c08167ffffffffffffffff16815250508063ffffffff166101008163ffffffff16815250506000600560146101000a81548160ff0219169083151502179055505050505062000389565b600033905090565b60008060009054906101000a900473ffffffffffffffffffffffffffffffffffffffff169050816000806101000a81548173ffffffffffffffffffffffffffffffffffffffff021916908373ffffffffffffffffffffffffffffffffffffffff1602179055508173ffffffffffffffffffffffffffffffffffffffff168173ffffffffffffffffffffffffffffffffffffffff167f8be0079c531659141344cd1fd0a4f28419497f9722a3daafe3b4186f6b6457e060405160405180910390a35050565b600080fd5b600073ffffffffffffffffffffffffffffffffffffffff82169050919050565b60006200021e82620001f1565b9050919050565b620002308162000211565b81146200023c57600080fd5b50565b600081519050620002508162000225565b92915050565b600067ffffffffffffffff82169050919050565b620002758162000256565b81146200028157600080fd5b50565b60008151905062000295816200026a565b92915050565b6000819050919050565b620002b0816200029b565b8114620002bc57600080fd5b50565b600081519050620002d081620002a5565b92915050565b600063ffffffff82169050919050565b620002f181620002d6565b8114620002fd57600080fd5b50565b6000815190506200031181620002e6565b92915050565b60008060008060808587031215620003345762000333620001ec565b5b600062000344878288016200023f565b9450506020620003578782880162000284565b93505060406200036a87828801620002bf565b92505060606200037d8782880162000300565b91505092959194509250565b60805160a05160c05160e0516101005161197d620003d560003960006105780152600061053401526000610555015260006104f80152600081816103a401526103f8015261197d6000f3fe6080604052600436106100f75760003560e01c8063730b83811161008a578063f2fde38b11610059578063f2fde38b1461030f578063f325681914610338578063f90f456014610363578063fd6673f51461036d576100fe565b8063730b8381146102535780638da5cb5b1461027c578063d7c81b55146102a7578063e55ae4e8146102d2576100fe565b80635e123ce4116100c65780635e123ce4146101a857806362066eb3146101d35780636e04ff0d146101fe578063715018a61461023c576100fe565b806303a82712146101005780631fe543e31461012b5780634585e33b14610154578063473f1ddc1461017d576100fe565b366100fe57005b005b34801561010c57600080fd5b50610115610398565b6040516101229190610ea1565b60405180910390f35b34801561013757600080fd5b50610152600480360381019061014d9190611055565b6103a2565b005b34801561016057600080fd5b5061017b6004803603810190610176919061110c565b610462565b005b34801561018957600080fd5b5061019261063b565b60405161019f919061119a565b60405180910390f35b3480156101b457600080fd5b506101bd610665565b6040516101ca91906111d0565b60405180910390f35b3480156101df57600080fd5b506101e8610678565b6040516101f59190610ea1565b60405180910390f35b34801561020a57600080fd5b50610225600480360381019061022091906112a0565b610682565b604051610233929190611368565b60405180910390f35b34801561024857600080fd5b5061025161071f565b005b34801561025f57600080fd5b5061027a60048036038101906102759190611398565b610733565b005b34801561028857600080fd5b50610291610824565b60405161029e919061119a565b60405180910390f35b3480156102b357600080fd5b506102bc61084d565b6040516102c99190610ea1565b60405180910390f35b3480156102de57600080fd5b506102f960048036038101906102f491906113d8565b610853565b604051610306919061119a565b60405180910390f35b34801561031b57600080fd5b5061033660048036038101906103319190611431565b61089b565b005b34801561034457600080fd5b5061034d61091e565b60405161035a91906111d0565b60405180910390f35b61036b610935565b005b34801561037957600080fd5b50610382610a68565b60405161038f9190610ea1565b60405180910390f35b6000600354905090565b7f000000000000000000000000000000000000000000000000000000000000000073ffffffffffffffffffffffffffffffffffffffff163373ffffffffffffffffffffffffffffffffffffffff161461045457337f00000000000000000000000000000000000000000000000000000000000000006040517f1cf993f400000000000000000000000000000000000000000000000000000000815260040161044b92919061145e565b60405180910390fd5b61045e8282610a75565b5050565b600061047c60405180602001604052806000815250610682565b509050806104d95747600280549050600560149054906101000a900460ff166040517fb5bee3f40000000000000000000000000000000000000000000000000000000081526004016104d093929190611487565b60405180910390fd5b6000600560146101000a81548160ff02191690831515021790555060007f000000000000000000000000000000000000000000000000000000000000000073ffffffffffffffffffffffffffffffffffffffff16635d3b1d307f00000000000000000000000000000000000000000000000000000000000000007f000000000000000000000000000000000000000000000000000000000000000060037f000000000000000000000000000000000000000000000000000000000000000060016040518663ffffffff1660e01b81526004016105b9959493929190611536565b6020604051808303816000875af11580156105d8573d6000803e3d6000fd5b505050506040513d601f19601f820116820180604052508101906105fc919061159e565b90507f7a4b4b419acd60cce897d29505244be10aa789eb3c4650f23f9d8c2e1484dfb88160405161062d9190610ea1565b60405180910390a150505050565b6000600560009054906101000a900473ffffffffffffffffffffffffffffffffffffffff16905090565b600560149054906101000a900460ff1681565b6000600154905090565b6000606060006003546004544261069991906115fa565b119050600080600280549050119050600080471190508280156106c85750600560149054906101000a900460ff165b80156106d15750805b80156106da5750815b9450846040518060400160405280600381526020017f307830000000000000000000000000000000000000000000000000000000000081525094509450505050915091565b610727610c76565b6107316000610cf4565b565b61073b610c76565b600560149054906101000a900460ff161561078b576040517f08c379a00000000000000000000000000000000000000000000000000000000081526004016107829061168b565b60405180910390fd5b80600381905550600260006107a09190610dc0565b6001600560146101000a81548160ff021916908315150217905550816001819055506001600660008282546107d591906116ab565b92505081905550426004819055507fa2dfaa3573b86004ec9d4d4abe5068d942579c59da4da8cd0d9e45e71a393bc16006546001546040516108189291906116df565b60405180910390a15050565b60008060009054906101000a900473ffffffffffffffffffffffffffffffffffffffff16905090565b60065481565b60006002828154811061086957610868611708565b5b9060005260206000200160009054906101000a900473ffffffffffffffffffffffffffffffffffffffff169050919050565b6108a3610c76565b600073ffffffffffffffffffffffffffffffffffffffff168173ffffffffffffffffffffffffffffffffffffffff1603610912576040517f08c379a0000000000000000000000000000000000000000000000000000000008152600401610909906117a9565b60405180910390fd5b61091b81610cf4565b50565b6000600560149054906101000a900460ff16905090565b600154341015610971576040517fcfc9b4a600000000000000000000000000000000000000000000000000000000815260040160405180910390fd5b600560149054906101000a900460ff166109c0576040517f08c379a00000000000000000000000000000000000000000000000000000000081526004016109b790611815565b60405180910390fd5b6002339080600181540180825580915050600190039060005260206000200160009091909190916101000a81548173ffffffffffffffffffffffffffffffffffffffff021916908373ffffffffffffffffffffffffffffffffffffffff1602179055503373ffffffffffffffffffffffffffffffffffffffff167f21fbb683eb655146ba492504f6ee2710dfe3b5b940e6a739c7edc6b5281360f760405160405180910390a2565b6000600280549050905090565b600060028054905082600081518110610a9157610a90611708565b5b6020026020010151610aa39190611864565b9050600060028281548110610abb57610aba611708565b5b9060005260206000200160009054906101000a900473ffffffffffffffffffffffffffffffffffffffff16905080600560006101000a81548173ffffffffffffffffffffffffffffffffffffffff021916908373ffffffffffffffffffffffffffffffffffffffff160217905550600067ffffffffffffffff811115610b4457610b43610f12565b5b604051908082528060200260200182016040528015610b725781602001602082028036833780820191505090505b5060029080519060200190610b88929190610de1565b5060008173ffffffffffffffffffffffffffffffffffffffff1647604051610baf906118c6565b60006040518083038185875af1925050503d8060008114610bec576040519150601f19603f3d011682016040523d82523d6000602084013e610bf1565b606091505b5050905080610c2c576040517f3a6359da00000000000000000000000000000000000000000000000000000000815260040160405180910390fd5b8173ffffffffffffffffffffffffffffffffffffffff167f5b690ec4a06fe979403046eaeea5b3ce38524683c3001f662c8b5a829632f7df60405160405180910390a25050505050565b610c7e610db8565b73ffffffffffffffffffffffffffffffffffffffff16610c9c610824565b73ffffffffffffffffffffffffffffffffffffffff1614610cf2576040517f08c379a0000000000000000000000000000000000000000000000000000000008152600401610ce990611927565b60405180910390fd5b565b60008060009054906101000a900473ffffffffffffffffffffffffffffffffffffffff169050816000806101000a81548173ffffffffffffffffffffffffffffffffffffffff021916908373ffffffffffffffffffffffffffffffffffffffff1602179055508173ffffffffffffffffffffffffffffffffffffffff168173ffffffffffffffffffffffffffffffffffffffff167f8be0079c531659141344cd1fd0a4f28419497f9722a3daafe3b4186f6b6457e060405160405180910390a35050565b600033905090565b5080546000825590600052602060002090810190610dde9190610e6b565b50565b828054828255906000526020600020908101928215610e5a579160200282015b82811115610e595782518260006101000a81548173ffffffffffffffffffffffffffffffffffffffff021916908373ffffffffffffffffffffffffffffffffffffffff16021790555091602001919060010190610e01565b5b509050610e679190610e6b565b5090565b5b80821115610e84576000816000905550600101610e6c565b5090565b6000819050919050565b610e9b81610e88565b82525050565b6000602082019050610eb66000830184610e92565b92915050565b6000604051905090565b600080fd5b600080fd5b610ed981610e88565b8114610ee457600080fd5b50565b600081359050610ef681610ed0565b92915050565b600080fd5b6000601f19601f8301169050919050565b7f4e487b7100000000000000000000000000000000000000000000000000000000600052604160045260246000fd5b610f4a82610f01565b810181811067ffffffffffffffff82111715610f6957610f68610f12565b5b80604052505050565b6000610f7c610ebc565b9050610f888282610f41565b919050565b600067ffffffffffffffff821115610fa857610fa7610f12565b5b602082029050602081019050919050565b600080fd5b6000610fd1610fcc84610f8d565b610f72565b90508083825260208201905060208402830185811115610ff457610ff3610fb9565b5b835b8181101561101d57806110098882610ee7565b845260208401935050602081019050610ff6565b5050509392505050565b600082601f83011261103c5761103b610efc565b5b813561104c848260208601610fbe565b91505092915050565b6000806040838503121561106c5761106b610ec6565b5b600061107a85828601610ee7565b925050602083013567ffffffffffffffff81111561109b5761109a610ecb565b5b6110a785828601611027565b9150509250929050565b600080fd5b60008083601f8401126110cc576110cb610efc565b5b8235905067ffffffffffffffff8111156110e9576110e86110b1565b5b60208301915083600182028301111561110557611104610fb9565b5b9250929050565b6000806020838503121561112357611122610ec6565b5b600083013567ffffffffffffffff81111561114157611140610ecb565b5b61114d858286016110b6565b92509250509250929050565b600073ffffffffffffffffffffffffffffffffffffffff82169050919050565b600061118482611159565b9050919050565b61119481611179565b82525050565b60006020820190506111af600083018461118b565b92915050565b60008115159050919050565b6111ca816111b5565b82525050565b60006020820190506111e560008301846111c1565b92915050565b600080fd5b600067ffffffffffffffff82111561120b5761120a610f12565b5b61121482610f01565b9050602081019050919050565b82818337600083830152505050565b600061124361123e846111f0565b610f72565b90508281526020810184848401111561125f5761125e6111eb565b5b61126a848285611221565b509392505050565b600082601f83011261128757611286610efc565b5b8135611297848260208601611230565b91505092915050565b6000602082840312156112b6576112b5610ec6565b5b600082013567ffffffffffffffff8111156112d4576112d3610ecb565b5b6112e084828501611272565b91505092915050565b600081519050919050565b600082825260208201905092915050565b60005b83811015611323578082015181840152602081019050611308565b60008484015250505050565b600061133a826112e9565b61134481856112f4565b9350611354818560208601611305565b61135d81610f01565b840191505092915050565b600060408201905061137d60008301856111c1565b818103602083015261138f818461132f565b90509392505050565b600080604083850312156113af576113ae610ec6565b5b60006113bd85828601610ee7565b92505060206113ce85828601610ee7565b9150509250929050565b6000602082840312156113ee576113ed610ec6565b5b60006113fc84828501610ee7565b91505092915050565b61140e81611179565b811461141957600080fd5b50565b60008135905061142b81611405565b92915050565b60006020828403121561144757611446610ec6565b5b60006114558482850161141c565b91505092915050565b6000604082019050611473600083018561118b565b611480602083018461118b565b9392505050565b600060608201905061149c6000830186610e92565b6114a96020830185610e92565b6114b660408301846111c1565b949350505050565b6000819050919050565b6114d1816114be565b82525050565b600067ffffffffffffffff82169050919050565b6114f4816114d7565b82525050565b600061ffff82169050919050565b611511816114fa565b82525050565b600063ffffffff82169050919050565b61153081611517565b82525050565b600060a08201905061154b60008301886114c8565b61155860208301876114eb565b6115656040830186611508565b6115726060830185611527565b61157f6080830184611527565b9695505050505050565b60008151905061159881610ed0565b92915050565b6000602082840312156115b4576115b3610ec6565b5b60006115c284828501611589565b91505092915050565b7f4e487b7100000000000000000000000000000000000000000000000000000000600052601160045260246000fd5b600061160582610e88565b915061161083610e88565b9250828203905081811115611628576116276115cb565b5b92915050565b600082825260208201905092915050565b7f47616d652069732063757272656e746c792072756e6e696e6700000000000000600082015250565b600061167560198361162e565b91506116808261163f565b602082019050919050565b600060208201905081810360008301526116a481611668565b9050919050565b60006116b682610e88565b91506116c183610e88565b92508282019050808211156116d9576116d86115cb565b5b92915050565b60006040820190506116f46000830185610e92565b6117016020830184610e92565b9392505050565b7f4e487b7100000000000000000000000000000000000000000000000000000000600052603260045260246000fd5b7f4f776e61626c653a206e6577206f776e657220697320746865207a65726f206160008201527f6464726573730000000000000000000000000000000000000000000000000000602082015250565b600061179360268361162e565b915061179e82611737565b604082019050919050565b600060208201905081810360008301526117c281611786565b9050919050565b7f47616d6520686173206e6f74206265656e207374617274656420796574000000600082015250565b60006117ff601d8361162e565b915061180a826117c9565b602082019050919050565b6000602082019050818103600083015261182e816117f2565b9050919050565b7f4e487b7100000000000000000000000000000000000000000000000000000000600052601260045260246000fd5b600061186f82610e88565b915061187a83610e88565b92508261188a57611889611835565b5b828206905092915050565b600081905092915050565b50565b60006118b0600083611895565b91506118bb826118a0565b600082019050919050565b60006118d1826118a3565b9150819050919050565b7f4f776e61626c653a2063616c6c6572206973206e6f7420746865206f776e6572600082015250565b600061191160208361162e565b915061191c826118db565b602082019050919050565b6000602082019050818103600083015261194081611904565b905091905056fea26469706673582212207e95e809f6a30667984fe383bcf76139e9cb6ae8167484cf9b8ab91d6c7ea79f64736f6c63430008120033",
  "linkReferences": {},
  "deployedLinkReferences": {}
}